:102000000080002031AC000009AB00002DAC0000C6
:1020100000000000000000000000000000000000C0
:102020000000000000000000000000002DAC0000D7
:1020300000000000000000002DAC000085AC000096
:102040002DAC00002DAC00002DAC00002DAC00002C
:10205000CDAA00002DAC00005D450000EDA40000FD
:102060002DAC0000757400002DAC0000213A00007A
:102070004D7400002DAC00002DAC00002DAC000014
:102080002DAC00002DAC00002DAC00002DAC0000EC
:10209000000000002DAC00002DAC00002DAC0000B5
:1020A0002DAC00002DAC00002DAC00002DAC0000CC
:1020B0000000000010B5064C2378002B07D1054B1B
:1020C000002B02D0044800E000BF0123237010BDA4
:1020D000C001002000000000D41F010008B5084B1B
:1020E000002B03D00748084900E000BF07480368F9
:1020F000002B03D0064B002B00D0984708BDC046EC
:1021000000000000D41F0100C4010020B401002021
:102110000000000000207047031C007C08221040D3
:1021200004D0D86A5B6AC01A00D501487047C0461F
:10213000FFFFFF7F014B03607047C046A014010002
:1021400008B5103002F08EFE08BD08B5103002F060
:1021500027FF08BD08B5103002F092FD08BD10B58C
:10216000041C08F0F8FC201C10BD07B56B46D971A3
:1021700007331030191C012202F012FF0EBD13B5F7
:102180006C460734211C012202F0B8FC012801D161
:10219000207801E00120404216BD08B51030FFF75D
:1021A000EEFF08BDF8B5174F0122061C0D1C381CA8
:1021B000002103F08DFE144C144B2760E01802F050
:1021C00099FE0121201C03F097FC011E08D00F4B43
:1021D000211CE718381C02F075FC00280DD005E022
:1021E000201C03F089FC0028F1D106E0074BE25CDB
:1021F00070231A4201D0064B1F60301C291C08F0C6
:1022000004FDF8BDE40100202C0300203C04000084
:102210007C0F002070B50D1CFA218EB0890003914F
:102220000F49104E01911049002305AC026801A826
:10223000037443748919201C029302F062FE26780D
:10224000201C002E07D0291C02F04CFD201CFFF79B
:1022500096FFC6B2201C02F04DFE301C0EB070BDC1
:10226000E00D01003C0400002C03002070B58EB08E
:1022700001AC0023237463740293FA239B0003933D
:102280000C4B0E1C01930C490C4B151CC918026811
:102290000B4B05A802F035FE311C05A802F022FD0B
:1022A000291C201CFFF761FF05A802F023FE0EB0D9
:1022B00070BDC046E00D01002C0300203C0400006E
:1022C00002420000F0B58FB001AC1F1C0023237444
:1022D00063746360FA239B00A3600F4B0D1C019392
:1022E0000E490F4B161CC91802680E4B05A802F0C8
:1022F00008FE291C05A802F0F5FC351CAB1BBB42EF
:1023000005DA2978201CFFF730FF0135F6E705A82C
:1023100002F0F0FD0FB0F0BDE00D01002C03002035
:102320003C0400000242000030B58FB0002301A938
:102330000B744B740D49026801910D4D0D49FA2043
:1023400005AC800003904919201C029302F0D9FDCE
:102350002578201C002D03D002F0CCFD012002E0E6
:1023600002F0C8FD281C0FB030BDC046E00D0100D2
:102370003C0400002C03002098B5CA1DD208D200EE
:102380000B1C6946891A00AF8D466A466C46A11A35
:10239000994203DAFF2121700134F8E70021FFF7A9
:1023A00091FFBD4698BD0000F8B50024251C354AB4
:1023B0000023AB54344BAA00D358344F344A354E23
:1023C0001360E2595B113360934203D1324A1278B1
:1023D000002A4FD0314A1278012A20D0002A02D098
:1023E000022A2BD046E02E4A2E4F115D2E4ADBB238
:1023F000125D381C01F054FB2C4B381C195D2C4B22
:102400001A5D337801F05CFC3268204BE2501D4AC3
:102410000123535508F03EFC264B18602AE0072D97
:1024200028DC1F4ADBB2115D1F4A1E48125D01F015
:1024300037FB1E4B195D1E4B1A5D15E0072D19DC8D
:10244000174ADBB21219116A174AC9B21219126A75
:102450001448D2B201F024FB144B1B19196A144B17
:10246000C9B21B191A6AD2B233780E4801F028FC9F
:1024700036683E5101350434102D98D1064B0022A8
:102480001A70F8BD90090020500900207C0200203D
:10249000CC0200204C090020DC0100208C07002029
:1024A000EC020020F4070020B0080020A007002064
:1024B000F0080020D002002007B5021C044901A842
:1024C0000BF0B8FF034801A905F034F807BDC0467A
:1024D000960F0100F8140020F8B5061C0F1C041C10
:1024E000A31B084DBB4208DA2078FFF7E5FF281C44
:1024F000054905F01FF80134F2E7281C05F024F81F
:10250000F8BDC046F8140020281E0100F8B5061CCE
:102510000F1C041CA31B094DBB420ADA21780A22B6
:10252000281C05F080F8281C054905F003F8013443
:10253000F0E7281C05F008F8F8BDC046F8140020A4
:10254000281E0100F8B5071C0E1C0024094DB442DA
:102550000BDAA300F9580A22281C05F04CF8281CB5
:10256000054904F0E7FF0134F0E7281C04F0ECFF14
:10257000F8BDC046F81400209B0F0100F8B5051CFB
:102580000F1C161C041C631BB34207DA211C0448F1
:10259000FFF740FE7B1B18550134F4E7F8BDC04639
:1025A0003009002030B5BBB01CAC7D2323700F2355
:1025B000E37004232371184B70221B68002563719C
:1025C000164B69461B686570A371154BA5701B6897
:1025D000E371144B18685043FFF7D0FF2B1C69467A
:1025E000CA5CFF2A00D17F22E11801330A72702BE6
:1025F000F5D10D490D4804F0AFFF201C7821FFF7FD
:1026000085FF221C0A48782101F05EFA094B01225D
:102610001A703BB030BDC0469C0800200800002066
:1026200018020020DC0200209D0F0100F814002099
:10263000F4070020DC010020F8B5051C0F1C161C57
:10264000041C631BB34207DA7B1B1A5D211C034881
:10265000FFF70CFE0134F4E7F8BDC0463009002056
:1026600000B5072828D8174B08F020FF04060813E8
:1026700015181B241B6902E0186913E0DB68124A75
:1026800093421CDB581E1843C01703405842801069
:1026900017E0D86806E09868401003E09B685B107C
:1026A000EDE75869002808DBFE239B019842EEDD28
:1026B000181CECE75B69E2E703E0002001E0FE2084
:1026C000000100BD8008002080C0FFFFFA20F8B59F
:1026D000800008F017FB6C4C6C49201C04F03CFF98
:1026E0006B4D281C04F06CF80A22011C201C04F01D
:1026F00082FF684E201C311C04F01CFF281C04F0D3
:1027000065F80A22011C201C04F075FF311C201CF6
:1027100004F010FF281C04F05FF80A22011C201CA2
:1027200004F069FF311C201C04F004FF281C04F095
:1027300062F80A22011C201C04F05DFF311C201CE1
:1027400004F0F8FE281C04F06CF80A22011C201C7E
:1027500004F051FF311C201C04F0ECFE281C04F096
:1027600076F80A22011C201C04F049FF4A49201C6B
:1027700004F0E0FE281C002103F0BFFF281C00210C
:1027800003F0DCFF281C022103F0F9FF4349201C61
:1027900004F0E2FE4249201C04F0DEFE281C04F096
:1027A0000FF80A22011C201C04F025FF311C201CFC
:1027B00004F0C0FE281C04F009F80A22011C201CA9
:1027C00004F019FF311C201C04F0B4FE281C04F096
:1027D00003F80A22011C201C04F00DFF311C201CF0
:1027E00004F0A8FE281C04F006F80A22011C201C94
:1027F00004F001FF311C201C04F09CFE281C04F096
:1028000010F80A22011C201C04F0F5FE311C201CCB
:1028100004F090FE281C04F01AF80A22011C201C67
:1028200004F0EDFE1F49201C04F096FE281C012137
:1028300003F0D8FF281C012103F056FF08250424CB
:10284000194E01213319013B1F78361B381C08F043
:1028500001FD367A0121301C08F0FCFC1E2008F036
:1028600051FA381C002108F0F5FC301C002108F05A
:10287000F1FC013C1E2008F045FA002CE0D1013D9E
:10288000002DDCD1F8BDC046F8140020AF0F0100C8
:10289000840F00209B0F0100DD0F010002100100DA
:1028A0000810010035100100700F010038B5051C3B
:1028B0000024044B291CE05C013408F0CBFC082CFC
:1028C000F7D138BD700F010038B50024064B022047
:1028D000E55C08F029F90134011C281C08F0BAFC59
:1028E000082CF3D138BDC046700F0100F0B50021AF
:1028F0009DB093480A1CFFF7B9FC0024261CFFF783
:10290000E3FF904D211C281C0122FFF7AFFC611C46
:10291000281C0122FFF7AAFCA11C281C0022FFF79B
:10292000A5FCE11C281C0022FFF7A0FC211D281C8F
:102930000F22FFF79BFC611D281C0022FFF796FC6D
:10294000A11D281C7A22FFF791FCE11D281C1F22E3
:10295000FFF78CFC211C281C08310122FFF786FCA4
:10296000211C281C09310122FFF780FC211C281C96
:102970000A310022FFF77AFC211CF2B2281C0B312D
:10298000FFF774FC0C273919281C00220137FFF7C8
:102990006DFC102FF7D1FFF797FF00276A4A211C23
:1029A000BB001031C919D25C281C0137FFF75EFC4F
:1029B000102FF3D1FFF788FF0027644A211CBB00CA
:1029C0002031C919D25C281C0137FFF74FFC102FAA
:1029D000F3D1FFF779FF00275D4A211CBB0030319E
:1029E000C919D25C281C0137FFF740FC102FF3D126
:1029F000FFF76AFF0027574A211CBB004031C91965
:102A0000D25C281C0137FFF731FC102FF3D1FFF700
:102A10005BFF0027504A211CBB005031C919D25C12
:102A2000281C0137FFF722FC042FF3D1FFF74CFFDE
:102A300000274A4A211CBB005431C919D25C281C0A
:102A40000137FFF713FC042FF3D1FFF73DFF0027F9
:102A5000434A211CBB005831C919D25C281C0137DC
:102A6000FFF704FC042FF3D1FFF72EFF00273D4AA8
:102A7000211CBB005C31C919D25C281C0137FFF74F
:102A8000F5FB042FF3D1FFF71FFF0027364A211C67
:102A9000BB006031C919D25C281C0137FFF7E6FB87
:102AA000042FF3D1FFF710FF0027304A211CBB0091
:102AB0006431C919D25C281C0137FFF7D7FB042FFA
:102AC000F3D1FFF701FF0027294A211CBB00683121
:102AD000C919D25C281C0137FFF7C8FB042FF3D1BA
:102AE0000027FFF7F1FE234A211CBB006C31C919F6
:102AF000D25C281C0137FFF7B9FB042FF1D1013656
:102B00007034082E00D0FAE60020FFF7CFFE6946A9
:102B100070220020FFF732FD174C1849201C04F0EA
:102B20001BFD0A22311C201C04F065FD201C1449E9
:102B300004F012FD68467021FFF7CEFC1DB0F0BD19
:102B4000BC02002030090020100E0100700E0100B0
:102B5000B00E0100F00E0100600F0100500F0100E7
:102B6000000E0100800F0100500E0100300F010027
:102B7000600E0100400F0100F814002069100100F0
:102B80007E100100F0B500210A1CB9B05A48FFF7C9
:102B90006DFB68460F2101717A21002301228171AA
:102BA0001F21027042708370C3704371C171027241
:102BB00042728372037343738373C37300A9CA1889
:102BC0004E499800415801331174102BF6D100235F
:102BD00000A84B49C21898004158203201331170A7
:102BE000102BF5D1002300A9CA1846499800415876
:102BF000303201331170102BF5D1002300A8424967
:102C0000C21898004158403201331170102BF5D191
:102C1000012314AA137053709370D37015AA137004
:102C200053709370D37016AA137053709370D3704F
:102C300017AA137053709370D370182018AB242107
:102C400030226C46187059709A7063343C2323709C
:102C500019AC2070684665300170694666310A70AB
:102C60006A466732402413701AAB1C705C709C700B
:102C7000DC70FFF729FE1BAB1C70FFF725FE6B46CF
:102C80006D331C70FFF720FE6B466E331C70FFF730
:102C90001BFE6B466F331C70002470252F1C67438E
:102CA0001A4E2B1C301C391C6A46FFF70BFB391CD3
:102CB000E2B20B31301C0134FFF7D8FAFFF704FE03
:102CC000082CEAD12A1C1CA90020FFF757FC104E43
:102CD0001049301C04F040FC0A22211C301C04F076
:102CE0008AFC301C0C4904F037FC1CA8291CFFF797
:102CF000F3FB39B0F0BDC046BC020020100E01004D
:102D0000700E0100B00E0100F00E0100300900202D
:102D1000F8140020691001007E10010030B514483D
:102D20009DB00021FFF776FA124C051C201C012DE6
:102D300005DD114904F010FCFFF724FF15E00F49F1
:102D400004F0F8FB281CFFF7B7FB201C04F0FCFB89
:102D5000002069467022FFF711FC0949201C04F08D
:102D6000FBFB68467021FFF7B7FB1DB030BDC046C6
:102D700030090020F81400208A100100BC10010066
:102D8000D310010070B5061C0024A319082B00DD28
:102D90000823DA431A4DD2171340E85C012108F0EA
:102DA00059FA331B082B00DD0823DA43D2171340EE
:102DB000E85C012108F04EFA0134192007F0A2FF67
:102DC000082CE2D10024A319082B00DD0823DA43E4
:102DD000D2171340E85C002108F03CFA331B082BA3
:102DE00000DD0823DA43D2171340E85C002108F025
:102DF00031FA0134192007F085FF082CE3D170BDAA
:102E0000700F0100F8B50021BD48FFF703FABD4C73
:102E1000BD4E2060BD49301C04F08CFB21680A22A5
:102E2000301C04F0ECFB0020FFF740FD2068FFF7AA
:102E3000A9FFB74B22680121985C08F00BFA2368C0
:102E400070255D430027B34C291C1031C919201C83
:102E5000FFF7E0F9B04ABB0001379850102FF2D1CC
:102E6000AE49301C04F078FB391CAB48FFF76AFB15
:102E70000027291C2031C919201CFFF7CBF9A84ACB
:102E8000BB0001379850102FF3D1A649301C04F035
:102E900063FB391CA248FFF755FB0027291C303182
:102EA000C919201CFFF7B6F99F4ABB00013798509B
:102EB000102FF3D19D49301C04F04EFB391C9A4869
:102EC000FFF740FB0027291C4031C919201CFFF7E0
:102ED000A1F9974ABB0001379850102FF3D19549BB
:102EE000301C04F039FB391C9148FFF72BFB0027FD
:102EF000291C5031C919201CFFF78CF98E4ABB00E0
:102F000001379850042FF3D18C49301C04F024FB76
:102F1000391C8948FFF716FB0027291C5431C919B1
:102F2000201CFFF777F9864ABB0001379850042F21
:102F3000F3D18449301C04F00FFB391C8048FFF7A3
:102F400001FB0027291C5831C919201CFFF762F921
:102F50007D4ABB0001379850042FF3D17B49301CC8
:102F600004F0FAFA391C7848FFF7ECFA0027291C1C
:102F70005C31C919201CFFF74DF9754ABB000137B8
:102F80009850042FF3D17349301C04F0E5FA391C32
:102F90006F48FFF7D7FA0027291C6031C919201C98
:102FA000FFF738F96C4ABB0001379850042FF3D172
:102FB0006A49301C04F0D0FA391C6748FFF7C2FA9E
:102FC0000027291C6431C919201CFFF723F9644A22
:102FD000BB0001379850042FF3D16249301C04F034
:102FE000BBFA391C5E48FFF7ADFA0027291C68318F
:102FF000C919201CFFF70EF95B4ABB000137985036
:10300000042FF3D15949301C04F0A6FA391C564854
:10301000FFF798FA0027291C6C31C919201CFFF70B
:10302000F9F8534ABB0001379850042FF3D1301CF4
:10303000504904F091FA391C4D48FFF783FA291CD6
:10304000201CFFF7E7F84C4B691C1860201CFFF7A9
:10305000E1F84A4BA91C1860201CFFF7DBF8484B2D
:10306000291C18600831201CFFF7D4F8431E984132
:10307000444B291C18700931201CFFF7CBF8424B38
:10308000291C18600A31201CFFF7C4F83F4B291C8B
:1030900018600B31201CFFF7BDF81A4B291D186072
:1030A0003B4B1860201CFFF7B5F8691D071C201C5E
:1030B000FFF7B0F8051CED01ED19301C354904F09F
:1030C00039FA0A22301C291C04F099FA324B201CD0
:1030D00006211D60FFF79EF80721051C201CFFF745
:1030E00099F8041CE4016419301C2C4904F022FAFC
:1030F000301C211C0A2204F082FA294B1C60F8BD06
:10310000BC020020DC020020F8140020E1100100C5
:10311000700F010030090020EC0200201E11010098
:10312000A00700203A110100B0080020F7100100AC
:10313000F008002007110100E0070020171101002E
:103140009007002033110100B80900204F11010041
:10315000A0080020681101009809002081110100D9
:10316000200200209B110100A8090020B5110100D8
:103170003C090020CF110100FC010020E0020020EA
:1031800034020020F4070020E0010020F0070020B6
:1031900030020020E911010078020020FE11010038
:1031A0001C020020F0B50C2085B007F039FF002686
:1031B000382007F0EFFD8023DB0043608123DB052F
:1031C00003610023002501220362431D0275291CAF
:1031D000DD773F4B041C00F0F4FE3E4AB3009C50E8
:1031E0008022520162608422D20522613A4A01366D
:1031F0009D503A4A9D50102EDAD1394B0121E85C9E
:10320000013507F0E7FF082DF7D1364E0024301CBA
:1032100000F010FD14276743334D02222B68D819A4
:10322000324BE15C03F072F92B681921D819013493
:1032300003F077F9062CEDD1322007F063FD2C4C1A
:10324000012168220223201C03F048FB201CFA21E4
:1032500003F046FC286803F0A3F9002801D1FFF72A
:1032600035FA244901A807F0BDFC234C01A9201C14
:10327000FEF798FF01A807F06EFC204901A807F0AF
:10328000B1FC1F4D01A9281CFEF78CFF01A807F017
:1032900062FC201CFFF748F8002804D18021201C84
:1032A000C900FFF769F8281CFFF73EF8002803D192
:1032B000281C0121FFF760F8FFF730FDFFF7A2FDA2
:1032C000104B1B685A1E9341337005B0F0BDC046C9
:1032D0006F12833A38020020500900207C0200203F
:1032E000700F0100F407002098080020900F0100E3
:1032F000840F002013120100300900201E1201006B
:10330000BC020020E4020020F0B51D1C85B0274B54
:1033100000AF7A601A6870235343254CB860B86ACE
:103320000E1CC3182349201CFB6004F003F90A2279
:10333000291C201C04F05FF91F49201C04F0FAF836
:103340000A22F968201C04F056F91C49201C04F0DC
:10335000F1F80A22311C201C04F069F91849201CDC
:1033600004F0E8F80A227968201C04F048F9311CBE
:10337000B868FFF7B1F8EB1DDB08DB006A46D21A2C
:10338000954669460023AB4206DABC687868221885
:10339000D25CCA540133F6E7F8682A1CFFF74CF9EF
:1033A000FFF730FDBD4605B0F0BDC046DC02002091
:1033B000F8140020271201003D1201004B120100F9
:1033C0006112010073B50A4D061C0C1C281C09492A
:1033D00004F0B0F8281C211C0A2204F02CF9002368
:1033E0000093301C211C09227023FFF78DFF73BD51
:1033F000F81400207512010070B5284C051C0E1C35
:10340000201C274904F0A8F8281C311CFFF764F899
:10341000201C04F099F8201C022E01D8214909E053
:103420006B787D2B05D1AB78002B02D1EB78002B8C
:1034300003D01D4904F090F82FE02B791A2B1ED0F1
:103440001F2B0AD00E2B28D1201C184904F084F819
:10345000281C311CFFF7B6FF1FE0201C144904F0A4
:103460007BF8144B144C1A781D1C002A0ED107F05F
:1034700011FC2368C01A114B984207D80DE010497F
:10348000201C04F069F8FFF731FA06E0FFF78AF82C
:1034900000232B7007F0FEFB206070BDF8140020A5
:1034A00096120100A1120100C2120100F8120100DF
:1034B000E41201000C000020C802002010270000C8
:1034C0000D13010070B5504D2868503003F02BF8F3
:1034D0002868643003F027F84C4E3378002B09D06D
:1034E0000020FFF7E3F94A4B4A4A1B680121D05CF0
:1034F00007F0B0FE28680024503003F055F8A042D1
:1035000004D007F0C7FB444B0224186028686430DD
:1035100003F04AF8002804D007F0BCFB3E4B01241E
:1035200018602868643003F03BF800280BD1286845
:10353000643003F02EF8AF239B00984203D9374B39
:103540001A78002A59D02868643003F035F800282A
:1035500002D0324B00221A70022C07D0032C0AD062
:10356000012C16D12A4B1A68013202E0284B1A6846
:10357000013A1A600DE02A4B1A78002A01D1012283
:103580003FE0012A01D102223BE0022A3AD1002287
:1035900037E01F4C2368002B01DA072323602268E1
:1035A000072A01DD002323601C4B1E4D1B78002BD6
:1035B00001D02B68236022682B689A4201D0012336
:1035C000337007F067FB144B1B68C01AAF239B00D6
:1035D000984217D93378002B14D022680021124862
:1035E0002A60D2B23170FEF741FEFFF70BFC28686B
:1035F000FFF7C8FB01220D4B03E001221A700324E0
:10360000A1E71A7070BDC04698080020E8020020AB
:1036100030020020700F0100D80200200D000020B1
:103620008C070020DC020020BC0200200C000020DF
:1036300038B5274B1C78012C16D0002C02D0022C58
:1036400028D044E007F026FB224B1B68C51A224B0A
:103650000021E05C312D01D8204BE15C013407F002
:10366000F9FD082CF3D132E007F014FB1C4B1A686B
:103670001D1C801AC8282AD90024174B0021E05CA1
:10368000032C01DC174B1978013407F0E3FD082CFB
:10369000F3D114E007F0FEFA114B1A681D1C801AD2
:1036A000C82814D900240C4B0021E05C032C01DD58
:1036B0000C4B1978013407F0CDFD082CF3D107F03D
:1036C000E9FA084B01211A7828604A401A7038BD7F
:1036D0008C070020D0020020700F0100900900200C
:1036E000D402002004000020F0B587B007F0D8FA1B
:1036F000754C764B22681B68801A984215D907F0E2
:10370000CFFA2060FEF750FE714C201C00F0EEFA5C
:10371000201C00F06DFA002805D0201C00F06EFA85
:103720000421FFF769FEFFF783FFFFF7CBFE0024BC
:10373000684E0723326853431B1B002B02DCD30067
:10374000D31AE318644DA20057590592634AD05C1E
:1037500007F0C8FC011C381C00F00EFC059A5359F8
:103760005F4DDA6A5F4B1968081C8A4204DB2B68DC
:10377000101E984200DD181C80277F01009700234F
:103780002A6807F0DDF93368002B00D1381A564B50
:10379000059A01349850082CCAD15448041D011CC4
:1037A000021C031C00900830019402900C3110326E
:1037B00014334F4803F0B0F90024474BA600E0B2A1
:1037C0009E19FEF74DFF011C306A00F0D5FB336AED
:1037D000271CDA6A434B08371968081C8A4204DB45
:1037E0002B68101E984200DD181C80235B0100939B
:1037F0002A68002307F0A4F93B4ABF000134D051E6
:10380000082CDAD1002405253A4E6543336858194F
:1038100002F089FE3268501902F0CEFE002831D045
:10382000354BE358002B0BD0012B12D1334B2848DA
:10383000195D334B1A5D334B1B5D00F007F908E04F
:103840002E4B2348195D2E4B1A5D2E4B1B5D00F04D
:1038500027F92D4BE358002B0BD0012B12D12B4B0A
:103860001B48195D2A4B1A5D2A4B1B5D00F0FEF9BF
:1038700008E0264B1648195D254B1A5D254B1B5D4C
:1038800000F01EFA3068401902F08EFE002815D0B4
:10389000194BE358012B06D1184B0D48195D184BF5
:1038A0001A5D00F0E7F8184BE358012B06D1174BCF
:1038B0000748195D164B1A5D00F0EEF90434102C20
:1038C000A1D107B0F0BDC046C809002010000020FB
:1038D000F40700203402002038020020780F010095
:1038E0001C020020780200205009002080080020DF
:1038F000840F002098080020B8090020E00700206D
:1039000098090020A8090020A008002090070020A6
:10391000200200203C090020F8B5244C244A201C39
:10392000272102F033FD234D211C281C02F0BEFA92
:10393000214C281C221C214907F076FD204B2149EF
:1039400000225A542049DA715A54204800F070F885
:103950001F4E204F301C391C07F044F91E4D221C0D
:10396000291C301C07F060FD1C4E391C301C07F070
:1039700039F9291C221C301C07F056FD782007F06D
:103980000DFA061C051C041C7836201C143402F0A9
:103990009FFDB442F9D1124B1D6007F07BF9114B2A
:1039A0001860114B1A68114B1A60F8BD0002002014
:1039B000680D0020E40100200000002035210000F7
:1039C0002C0300203C0400003D040000F40700200C
:1039D000300900209C0F01005F210000BC02002084
:1039E00098080020D8020020DC02002030020020CD
:1039F00070B5061C0024084D315D0A22281C03F016
:103A000012FE0134281C054903F094FD042CF2D168
:103A1000281C03F099FD70BDF8140020281E010039
:103A200008B5024806F059FF08BDC046E809002065
:103A3000012303700122031C08335242DA67021C7F
:103A400088320023137053707047000013B50029AB
:103A50000DD001AC09202070702040420139014393
:103A600061700348211CA270E37003F00BFA13BDD0
:103A7000CC09002007B500290ED0002001AB019031
:103A800008201870802040420139014359700348D2
:103A9000191C9A7003F0F6F907BDC046CC09002046
:103AA00013B500290DD001AC0B20207050204042EE
:103AB0000139014361700348211CA270E37003F0D7
:103AC000E1F913BDCC090020F0B5434C85B0151CBD
:103AD000201C0A220E1C03F08EFD4049201C03F01E
:103AE0003BFD6A4604231372F02353722B783C4F3C
:103AF00093726B7802A9381CD37203F0C3F90120CA
:103B000007F000F93749201C03F014FD02A8FFF765
:103B10006FFF023E201C344903F01EFD0235019662
:103B2000019A022A1FDD03AE042333702B78311C67
:103B300073706B78381CB370AB780335F37003F097
:103B4000A1F9012007F0DEF82649201C03F0F2FC61
:103B5000301CFFF74DFF201C234903F0FDFC019BA7
:103B6000033B0193DCE7012A1CD0022A10D0002A73
:103B700030D104221D4903A80AF0F6FA03A9381C23
:103B800003F080F9201C174903F0D4FC03A81BE0C4
:103B900003AE07233370F723F3702B7873706B78C1
:103BA000B37008E00023039303AE06233370F723BA
:103BB000B3702B787370311C381C03F063F9201C30
:103BC000084903F0B7FC301CFFF712FF201C064920
:103BD00003F0C2FC05B0F0BDF81400202D13010065
:103BE000CC090020451301009C0F0100291301009E
:103BF00089300078431E9841C0B27047031C893356
:103C0000002201301A70704707B5074803F01EF90B
:103C10000123009300230193044805490322042350
:103C200006F072FD07BDC046CC090020E80900205F
:103C3000EC14002008B50A4803F01AF909480A49AB
:103C400006F0EAFC0321042007F04CFB06200121CA
:103C500007F0C0FA0620012107F0FCFA08BDC046B3
:103C6000CC090020E8090020127A000070B5161C6B
:103C70001D1C00290CD0074C9021201C06F09AFE38
:103C8000311C201C06F096FE201C291C06F092FE1A
:103C900070BDC046E809002038B5151C00290CD0BD
:103CA000064C8021201C06F085FE291C201C06F0F5
:103CB00081FE201C002106F07DFE38BDE8090020B1
:103CC00070B5161C1D1C00290CD0074CB021201CFF
:103CD00006F070FE311C201C06F06CFE201C291C16
:103CE00006F068FE70BDC046E8090020F0B5041C6F
:103CF00085B02D4E301C03F089F8002851D003AD5B
:103D0000301C291C03F0C3F82378002B0CD0274E5D
:103D10006978301C06F04EFEA978301C06F04AFE89
:103D2000E978301C06F046FE0126221C8832117804
:103D3000271C0837019101290BD1A95DF72908D16A
:103D4000F86F431C2018FB67417000211170019926
:103D50005170221C883201921378271C0837012BDE
:103D60000CD1FB6F7B2B05DC5A1CFA67AA5DE318AC
:103D70005A7003E00E480F4903F0EEFBA95DF029ED
:103D80000BD1019A1378002B07D10122FA676170D9
:103D900001990A70221C893213700136042EC4D195
:103DA000A7E705B0F0BDC046CC090020E809002017
:103DB000F81400205313010010B5081C0AF038F85D
:103DC000144B134A08F04EFA021C0B1C1149104800
:103DD00008F064FD0AF07EF80AF02AF8021C0B1CB9
:103DE0000C490B4809F054FC021C0B1C08F03AFA71
:103DF0000AF070F8FE218905041C07F07FFC0028FA
:103E000002D0FE20800500E0201C10BDC046C04648
:103E1000000000000000F03FF0B5027B85B0041CFC
:103E20000D1C0192002A2CD0037D002B29D0081CE8
:103E300008F06CF92669071C311C07F04BFC0028C0
:103E400006D0680008F062F9311C07F0CFFF15E0DA
:103E50006368181C009308F059F9311C07F0C6FF7D
:103E6000011C381C07F04AFC00280AD0009A6D009B
:103E7000A81A08F04BF9311C07F06CFC08F026F981
:103E8000051CA769281C08F041F9391C07F0AEFF92
:103E90000021051C07F032FC002801D0281C02E09C
:103EA00080231B06E81807F03DFC266A0090301CB2
:103EB00009F0BEFF02900391311C281C07F096FF09
:103EC00009F0B6FF2B4B2A4A09F052F9021C0B1CD1
:103ED0000298039908F0C6F909F0FCFF019A061C44
:103EE0002062002A17D0002107F008FC331C0028AC
:103EF00002D180221206B318181C216907F0EAFBD0
:103F0000431E9841012640423040C6B2631DD87717
:103F1000381C002E26D1009808F054F9A16807F04B
:103F20003BFE011C201CFFF747FF011C281C07F06B
:103F300033FE011C381C07F00DFC0026A061311C6B
:103F4000051C07F0C7FB00280AD16068013808F09B
:103F5000DDF8061C311C281C07F0D0FB002800D01F
:103F6000A661A06908F0B2F805B0F0BDC046C04631
:103F70009A9999999999D93FC36A10B58162036357
:103F8000041CFFF749FF236BE062C01A431E9841EF
:103F90003434207010BD38B5051C0C1C081CFE21E3
:103FA000890507F0ABFB002807D1201C002107F092
:103FB00091FB002803D0002401E0FE24A405AC609E
:103FC00038BDF8B5041C0D1C081C0021171C1E1C54
:103FD00007F000F9281C002107F03CF92560277341
:103FE000311C201CFFF7D7FFF8BD00000278034BFF
:103FF0009200D358002249331A707047EC0C00200D
:1040000070470000F0B585B01E1C0AAB1B78041C7D
:1040100001930BAB1B78103002930CAB1B78171C71
:1040200003930D1C00F066FA201C243000F062FAA5
:10403000221C00234832A363E36323646364137088
:10404000537063729D4205D108482221084A094BEA
:1040500009F0EAFF019B201C6371029B2560E3715C
:10406000039B2771A671237205B0F0BDC213010036
:104070006E1301001E14010030B585B0041C02ADA2
:1040800000680291039203F08AFB6B79E179227A4E
:1040900000932068002303F02FFD29792068029AFD
:1040A00003F0A2FB206803F070FB05B030BD0000F8
:1040B00007B5837A00910192002B0DD09A0706D59F
:1040C000EFF310835A425341C37272B604E0DA0729
:1040D00002D58289034B9A600099019AFFF7CCFFC1
:1040E00007BDC04600180040837A002B0BD09A070A
:1040F00004D5C37A002B06D062B604E0DA0702D5F5
:104100008289014BDA6070470018004008B50068EA
:1041100003F04EFB08BD70B5061C0C1C8D18AC429C
:1041200006D02178301CFFF7F1FF20700134F6E74C
:1041300070BD0000F0B587B0041C0CA80078059095
:10414000002902D1002A00D188E0002B00D185E0AF
:10415000201C4830007800285CD00026A56BE06B5E
:1041600004920291B4463E4F0193BB4200D901979D
:10417000019EB7B247806F80002A03D0049FBF1909
:104180000497AF6000290AD0029E019FF61946608D
:10419000029680270688FF003E43068005E0314FE7
:1041A000314E476007883E400680019E9B1B10D021
:1041B000276C3E1C6644EE60666C351C6544C56029
:1041C000276C666C3D1C301C102765446044BC4461
:1041D000C9E7C360EB60251C2435281C002A08D0E1
:1041E0002249012200F004FB201C103000F0B8FA34
:1041F00003E01F49012200F0FBFA01234934281C87
:10420000237000F0ADFA059D002D27D02378002BF8
:10421000FCD123E0002902D1151CD61815E0CD18D9
:104220000E1C171E09D0AE4218D03178206803F05A
:10423000BFFA013638700137F5E7AE420ED031785B
:10424000206803F0B5FA0136F7E7B54206D02068DA
:10425000FF2103F0ADFA28700135F6E707B0F0BD95
:10426000FFFF00006D130100FFFBFFFF0140000096
:10427000ED3F000008B5006803F0A2FB002804DB56
:104280000C235843024BC05800E0002008BDC04634
:104290003014010008B5006803F092FB002805DB2C
:1042A0000C235843034B1818406801E0012040429A
:1042B00008BDC0463014010008B5006803F080FB5B
:1042C000002805DB0C235843034B1818806801E0D5
:1042D0000120404208BDC04630140100F0B5061C64
:1042E000103689B0041C301C00F05CF900286CD139
:1042F000271C2437381C00F055F9051E62D1201CFC
:10430000FFF7DAFFC1B2301C00F076FA301C022150
:1043100000F096FA2E49301C012200F069FA237C45
:104320002C4A9B00201C9C50FFF7B4FFC1B2381CE4
:1043300000F062FA0221381C00F082FA631DDB7F74
:10434000244A9B00201C9C50FFF794FF0123011C72
:104350002A1C029300952B1C019503950495301C93
:1043600000F092FAA063201CFFF784FF0123021CD7
:104370000193291C2B1C0095029503950495381C6C
:1043800000F082FAE063402009F0C0FE221C4832AF
:1043900020640792002807D1079A1378002B14D1C4
:1043A000381C00F09BF90DE0079B01221A70606435
:1043B000636CE16B58191022103509F0D5FE402DC1
:1043C000F6D1E9E7301C00F089F909B0F0BDC0462C
:1043D000ED3F0000EC0C002070B5437A041C002B6C
:1043E00004D18372C372C36001234372231C483318
:1043F0001B78002B02D1201CFFF770FF20791826B4
:10440000331C43430D4D0821EB18595606F06AFF43
:10441000A079331C43430821EB18595606F062FF7C
:10442000607908214643AD19695606F05BFF044BDD
:10443000201C06CBFFF720FE70BDC04650170100C0
:10444000E40C00201FB50E4A0E4B0124136000231C
:10445000537113711D220092029301940A491C2288
:104460001E230A48FFF7CEFD2523009301940294F2
:104470000749242226230748FFF7C4FD1FBDC04675
:10448000E40C002000093D00F01400201C0D002069
:10449000F4140020680D0020094B1A68002A0BD183
:1044A000EFF31081074A002904D172B6BFF35F8F82
:1044B000012100E0002111701A6801321A60704772
:1044C000480F0020440F0020084B1A68002A0CD027
:1044D0001A68013A1A601B68002B06D1044B1B783E
:1044E000002B02D0BFF35F8F62B67047480F0020E9
:1044F000440F002010B5FF23002103700323041C88
:1045000041708170C170017143710C22083009F053
:104510004DFE201C10BD000008B501220B1C1340ED
:1045200005D00D4B1A700423437083680FE00222FC
:10453000114204D008490A704370C36807E004239D
:10454000194207D0044A1370072343700369002BF4
:1045500000D0984708BDC0464E48004110B5FFF74F
:104560009BFF0C4B0F211B8C0B400B2B0ED80A4AC8
:1045700098008058002809D0084A14788C432343B7
:104580001370074B1978C9B2FFF7C6FFFFF79CFFFE
:1045900010BDC046004800414C0F00203F4800417C
:1045A0004E480041F8B502780023051C181C0B2A60
:1045B00075D92B702B780B2B70D83B4E01223168AC
:1045C0009A40114200D06CE0FFF766FF3768374C25
:1045D000002F2BD1364B20215A6936480A435A61A5
:1045E000DA6910210A43DA61238802229343238087
:1045F00023880122134323802F4B6063391CA3635C
:10460000C02209F0D3FD391CC0222B4809F0CEFD91
:104610002A4B402223802A4B2A491A60C122920049
:1046200098580140C0200004014399502B78012282
:104630003168101C9840014331602349980045506F
:1046400022490F200E780340864333430B70204BE2
:10465000022019788143197019781143197029784B
:1046600023698A4093432361636C602293436364AC
:104670002A793F23616C1A40164B12020B401343F8
:1046800063646A790323616C1A40134B92050B40F3
:1046900013436364FFF718FF002000E0012040B2DD
:1046A000F8BD013385E7C046400F002000480041B7
:1046B00000040040800E0020C00D0020020F00000A
:1046C00000E100E0FFFF00FF4C0F00203F480041E9
:1046D00040480041FFC0FFFFFFFF3FFF38B5041C0B
:1046E000FFF7DAFE63780625AB422BD0227802254D
:1046F0000B2A27D8154B012019689040014221D080
:104700001968814319601B68002B14D1104B40229B
:10471000DA67BFF34F8FBFF36F8F0E4B02211A88FA
:104720008A431A800C4B1021DA698A43DA615A698C
:1047300020218A435A612278084B92000025D550E7
:10474000FF232370FFF7C0FE68B238BD400F002082
:1047500004E100E000480041000400404C0F00204C
:1047600038B5041CFFF798FE63780625AB4230D0BD
:10477000227802250B2A2CD8A3780325002B28D0D9
:1047800016491301CB185B88002B22D0A168E06882
:104790004B1E9941CBB2002801D002230B43206964
:1047A000002801D004210B43062161700C490F2021
:1047B0000C780240844322430A700A4A0221137093
:1047C00007229A43084B00251A70084B1A780A43AF
:1047D0001A70FFF779FE68B238BDC046800E00201F
:1047E0003F4800414D4800414C480041404800418D
:1047F000023292001150704738B5041C21710378C1
:104800000D1C0B2B15D8FFF747FE0A4A20781478A9
:104810000F218C430840211C01431170064B3F229D
:1048200015402A0205495D6C0D4015435D64FFF794
:104830004BFE38BD3F48004100480041FFC0FFFF2C
:1048400038B5041C617103780D1C0B2B15D8FFF7CC
:1048500023FE0A4A207814780F218C430840211C3B
:1048600001431170064B03221540AA0505495D6CF2
:104870000D4015435D64FFF727FE38BD3F480041FA
:1048800000480041FFFF3FFFF0B587B000930CAB3D
:104890001D780DAB1B78041C02930EAB1B780078BF
:1048A000039310AB049105921F780B2801D90020C7
:1048B0008DE06378062BFAD0A378002B12D010205D
:1048C000011C09F017FC0028F1D02278414B12019D
:1048D0009A18131CD968002977D0D9688A4274D0F5
:1048E000DB68F7E73B4B000118180123A3709D42DA
:1048F00004D00422022D02D01A1C00E002220188FA
:104900000626194301800188B143018006881821D9
:104910008E43068003210D4001882E028C462E49CD
:1049200065462940351C0D430299058019408E02C9
:104930002A4D01880D40311C2943018005880399C7
:10494000AC461940264DCE0261460D40311C29432C
:1049500001803B4005881903224B009E2B400B43EE
:10496000038003880F9D07212940DB044903DB0CEA
:104970000B430380049DB3B2029E43804560002E2A
:1049800008D0009B41685343002F01D00F9DAB40DE
:104990005B184360059E039D8660002D0BD0009E32
:1049A0007243002F04D10F9D8368AA40D21801E002
:1049B000866892198260E27800239A4203D02378B5
:1049C000044A1B01D318C36001E0D8608DE707B02B
:1049D000F0BDC046800E0020FFFCFFFFFFFBFFFF85
:1049E000FFF7FFFFFFEFFFFF10B5041C243000F0BE
:1049F000F4FE002801D100200AE08C239B00E0187F
:104A000000F0EBFE0028F6D0206803685B6898474A
:104A100010BD08B583780421021C0B438370116913
:104A20008068103201F00CF808BD0000F7B5057879
:104A30002023041C1D4001D000262EE0184B4269A3
:104A40009A42F9D8FFF7E5FF061EF5D02169A06864
:104A500000F013FF0190A06801992430052200F0B6
:104A6000E6FE071EE8D08022291C920009F09EFB7A
:104A70000125A26813799D420BD21068019A036840
:104A8000A9189B683A1C98470028D5D00135EDB28B
:104A9000EFE762695B02D3186361301CFEBDC0465C
:104AA000FFFD1F0010B5041C80680A1C2430A1699A
:104AB00000F0BDFE002804D0A2880F2313405B0144
:104AC000C01810BD70B503780025041C0E1CAB4245
:104AD00011D1291C242209F069FBA660F379102B5F
:104AE00003D0202B03D00C2B05D1202300E0402342
:104AF00001252370A570281C70BD0000F0B5037857
:104B000085B0041C03910192002B13D08278D10749
:104B100010D516E045790D400295002F43D1002DA8
:104B200041D1002B31D0221C2169103200F0ABFEA4
:104B3000002831DA63780222134301206370404277
:104B400098E01A0703D5E2696569531B07E09906E7
:104B500009D5A268656953895B015B1B9BB2019D06
:104B60009D4200D90193019D009500250295009D6D
:104B7000002D29D063692278DF05FF0DA068590A4E
:104B80009506C7D5056A4D1913E0510601D5036A8C
:104B900000E0236A236106E0002804D12278702314
:104BA0001A4211D1C6E7A068216900F066FE029A98
:104BB0008518A068002F42D12F4B009999423ED909
:104BC000C36A9D4204D13AE0019D0099681A51E000
:104BD0002A4A009991421ED9009A570A22789106D2
:104BE00006D402790299521AD2B2974200D9171C00
:104BF0007E02AB420BD9A368291C18680368DA68E7
:104C00003B1C9446039AE04700280ED192E7FB181C
:104C10009D4229D3EFE70068291C0368039A1B68AB
:104C20009847002886D08026B600039D6169AD199B
:104C30000395009D8B19AD1B6361009597E72430A8
:104C4000291C002200F0F3FD002800D172E7802328
:104C5000009E9B00DB1B9E4200D91E1CC119321C0A
:104C6000039809F081FAE0E7243000F0B6FD00284F
:104C7000C1D15FE705B0F0BDFF010000FF030000F8
:104C8000F7B56F460737391C0122041C46690569D0
:104C9000FFF734FF012805D13878431C04D0666142
:104CA000256101E001204042FEBD436937B5DD05C5
:104CB000041C2D0F01D000290DD16946201C07319D
:104CC0000122FFF71BFF40B2012801D0002008E0BD
:104CD00063691F3300E02033A0686D0130306361E9
:104CE00040193EBDF7B506690278041C0D1C0196FB
:104CF000002A37D041698D4238D0002D01D105619D
:104D00002EE0130703D5C669B5422BD807E09306FA
:104D100005D5866873895B019D4223D820E0A7688A
:104D20006E1EBB79481E0933DE40D840331E8342D5
:104D300001D3002906D1510601D53A6A00E0226A62
:104D4000226100E0331A1F1C002F09D0221CA0682A
:104D50002169103200F097FD013F0028F4DC01E0EA
:104D6000656103E0019E0020266100E00120FEBD98
:104D7000F7B51D1C08AB1B780F1C161C0021242244
:104D8000041C019309F012FAB8680F22A6803F6A4A
:104D90001640031C30337601A060E7609E19F37A59
:104DA0000822134253D117210B402370F77A1821A0
:104DB0000F4201D113432370019A2B1CE27003228E
:104DC0001340012B09D0022B05D0002B3FD16B05DE
:104DD0003DD4012302E0A27001E00223A370A37876
:104DE0009A0703D521781122114230D10821AA0453
:104DF0002940D20FD2010B431343A370C36AA361AE
:104E0000737D327D1B02F17E1343B27E09021B04C7
:104E1000114319436A0506D500291BD000F050FE46
:104E2000002817D113E02162737F327F1B021343E6
:104E3000B27F12041343F27F12061343E3616B0443
:104E40000DD5201CE169FFF74DFF002807D1002098
:104E5000207005E0A37804221343A370EFE701203C
:104E6000FEBD000038B50378051C0121002B3DD0A4
:104E700083785A0734D5FFF715FE041E05D16B78E9
:104E8000012213436B70002130E00378E52BF6D04C
:104E90002B781A0707D52B7F03776B7F4377AB7F80
:104EA0008377EB7FC3772B6A9AB21B0C23751B0A9F
:104EB00063750F4BA2761B68120AE276002B0BD0AB
:104EC000201C211C183016319847637E227E1B025D
:104ED0001343A3741B0AE374AB7804229343AB70AF
:104EE000A868FFF781FD0028C9D00121081C38BD42
:104EF000800F002010B5041CFFF7B4FF00232370BF
:104F000010BDF0B593B009AD1E1C00232B706B7063
:104F10000378041C0F1C0192002B01D000203DE0FF
:104F20000A7870231A42F9D001990B782F2B13D1EC
:104F3000019A13782F2B02D101320192F8E7B96858
:104F4000002B03D1201CFFF7BDFD27E0281CFFF735
:104F5000B9FD0028E2D02F1C019803A901AA00F096
:104F600020F90028DAD00198391C037803AA201C04
:104F7000002B10D0002300F05DFA0028CED02A1CB0
:104F8000231C83CB83C283CB83C283CB83C2201CED
:104F9000FFF7B0FFDFE7331C00F04CFA13B0F0BDB1
:104FA000F7B5019202780823041C00911A420AD036
:104FB0008278910707D51A420BD0201CE169FFF7D0
:104FC00091FE002805D1637801221343637050429B
:104FD000B6E062690199D3439942F4D80D1C676920
:104FE000002D00D18DE0A0687B0A4679FF051E40A8
:104FF000FF0D002E1DD1002F1BD1216900290CD0DF
:10500000221C103200F03FFC0028DCDB11D1201CF8
:10501000FFF7FFFC00280CD1D5E7236A002B07D14E
:10502000201CFFF7F6FC0028CDD02269226200E0A8
:1050300023612169A06800F020FC8119A068002F7D
:1050400002D1404B9D4227D880239B00DB1B2E1EA4
:105050009E4200D91E1C01239C46002F07D1052229
:1050600094466369E269934201D201239C4624304D
:10507000624600F0DCFB0028A5D0C0190099321C64
:1050800009F072F8F71980239B009F4231D1A06884
:10509000243000F0A2FB16E02B4B9D4216D9037979
:1050A0009E1BF6B26B0AB34200D9331CC26A5E0281
:1050B0008A4202D89A1891423BD3A26810680268CB
:1050C0001769009AB847002813D17CE7C26A8A4260
:1050D00004D1431DDF7701235B42C362A368009ABA
:1050E000186803689B689847002800D16BE7802602
:1050F000B6006169009A8B19921963610092AD1B29
:105100006DE7E169A3788F4201D9E76103E00F4AB7
:105110001268002A02D004221343A370A3787F2BC5
:1051200001D801980CE0201CFFF79CFE0028F8D164
:1051300049E7421D0027D77701225242C262BCE7ED
:10514000FEBDC046FF010000FF030000800F0020ED
:10515000031C042904D8490043185A7898780FE0B2
:105160000A2905D80139490043189A79D87907E006
:105170000020102906D8013149005B181A795879A6
:10518000000210437047002310B5041C181CC20114
:10519000E15C4008024352180133D0B20B2BF6D128
:1051A00010BDF0B587B00378202B01D10130FAE7AC
:1051B0008860041C231A00932378002B02D1009CE2
:1051C00003191BE02F2BFAD05C2B01D10020DCE06F
:1051D00008251E1CAE43222EF8D03A2BF6D04025CF
:1051E0001F1CAF433C2FF1D01D1C3E3D012DEDD9BE
:1051F000203B01345E2BDDD9E8E701331C78202CFD
:10520000FBD02F2CF9D01360009C002C0ED0009AFC
:105210008318013B1B782E2B01D0202B03D1009B40
:10522000013B0093F0E7009EFF2ECFDC009F0023A0
:105230004F60CA182024013354730B2BF9D1031C7F
:105240001C781A1A2E2C01D10133F9E7202CFBD03F
:1052500057425741FFB2009C0197013C631C07D1A4
:10526000002507260827029605950495039736E042
:10527000035D2E2BF1D1F3E7835C202B4AD02E2B3C
:1052800031D1944254D12A267642F618052E2FD9D0
:105290003A277F42FF18052F2CD95B267642F61855
:1052A000022E27D921277F42FF185D2F22D8A24244
:1052B0005BD0029EB54230D861277F42FF18192F7C
:1052C0001ED8049E039F203B3E43DBB204966F1C16
:1052D0004D196B73FDB2062D00D80D730132009F7E
:1052E000BA42C9DB29E0222B04D07C2BCBD101E0D0
:1052F0002D2BCDD0A24238D0002301935F23D8E7D5
:1053000041267642F618192EE1D8059F039E3743B1
:105310000597DCE700230193E0E7029F0A2F31D0D5
:10532000A24208DC0A271023221C029708250393B7
:1053300000260196D2E7002201924B7B202B00D160
:1053400044E7019E002E07D0049B059F1F4200D01A
:1053500002230B70012018E00B7B01200870C91894
:105360007E234B7331238B730FE0029A0A2A02D1FA
:1053700000230193E1E70A231026221C029308254B
:105380000396ABE700240194D7E707B0F0BDF7B56B
:105390000C7B071C0D1C02266968AA68731851183B
:1053A0009BB2019101998A4207D0590110788C462D
:1053B000634443409BB20132F4E7221C032C00D922
:1053C0000322D4B2221DD2B20F211940081C37305B
:1053D000092900D80738A918013AD2B248731B0925
:1053E000A242F1D82B197E225A73381C0021FFF7F4
:1053F00079FC0121381CFFF758FC011E04D1787894
:1054000043425841C0B213E00378002B0AD0C37A5C
:105410001A07EED4281C0D300B2208F096FE002847
:10542000E7D101E0012003E00136B6B2642EB3D12A
:10543000FEBD0000F0B50C1C91B0516806922278B8
:105440000B9370230E900A911A4201D10020ACE117
:105450000E9A1378002BF9D106990B789A0700D190
:1054600031E10A980D210C3006F034F80130C0B259
:105470000990201C0021FFF735FC002305930C93B5
:1054800007931F1C04930D936369201C01215E097F
:10549000FFF70BFCB6B2051E04D16378002B00D1D8
:1054A00093E0D3E70378E52B01D0002B0AD1002F3E
:1054B00000D1059609998F4201D27A1CD7B2002BF0
:1054C00007D182E0099900228F425241524217408F
:1054D00003E0E52B01D1002139E02E2B02D100227F
:1054E0000492D1E7EA7A0F2A4AD1049A002A08D115
:1054F0005906C9D51F22134004936A7B07930C9267
:105500000CE0079A013AD2B20792934202D00023EC
:105510000493B9E76B7B0C998B42DCD1079B0D227E
:10552000013B5A430A9B0892161E9E42D7D20D3267
:105530000F92089A281CB11AC9B2FFF709FE0A9BFC
:105540009E4206D143425841049940420140049191
:105550009AE7FF28DBD8C0B2031C413B192B01D8C6
:105560002030C0B2069B721C9B6803939B5D191C84
:105570004139192901D82033DBB29842ABD1A5E0DB
:105580001107ACD4049A002A0BD0079B012B00D042
:105590005CE7281CFFF7F7FD0C99884200D055E71F
:1055A0000FE00699281C0D310B2208F0CEFD0028D3
:1055B00000D069E7069B1A7801231A4201D00D93A7
:1055C00062E70B99090575D540E70B9A920500D45F
:1055D0003CE70B9903230B40013B012B00D935E736
:1055E000002F00D0059E099A974209D2201C002165
:1055F000FFF75BFB00286FD16378002B00D025E715
:10560000099B9F4209D2201CFFF710FA002800D105
:105610001CE7A1680B79012B61D90D9A002A62D190
:105620007101201CFFF75EFB002800D10EE7099BEB
:10563000013BDBB204930593059B002B5AD16169B2
:10564000201C4E09191CFFF730FBB6B2051E00D115
:10565000FCE60599202208F0A9FD06990B220D31E0
:10566000281C08F081FD069B1A78182313402B7321
:105670004F4B1B68002B00D18EE0281C291C1030DA
:105680000E3198476B7C2A7C1B021343FF221A4081
:105690001B0AEB746B76EB7BAA742A76AA7B1B023F
:1056A0001343AB751B0AEB75A36801210533DA7F41
:1056B0000A43DA77049A0E980092211C321C0B9B45
:1056C000FFF756FB71E001230993D2E60F998A4256
:1056D00000D1D9E6161C2CE77B1CDFB283E73B1C0C
:1056E0001033DFB28CE7201C0699FFF750FE00282C
:1056F00096D1ABE6201C0021FFF7D7FA051E00D19A
:10570000A4E6A36801210533DA7F059F0A430499C3
:10571000DA778F4202D1059A4027174306980F2364
:1057200000262F70EB722E730D30FFF72CFD069BB9
:10573000687399681F231F40013F0D235F43AE76B6
:10574000EE760A9A974201D2CB5D05E00A9ABB1A1F
:105750005A1E93415B429BB2F2B2042A05D87200F2
:10576000AA1853701B0A93700EE00A2A06D8721EFC
:105770005200AA1893711B0AD37105E0721C5200E3
:10578000AA1813711B0A5371013601370D2ED8D197
:10579000059B013BDBB24EE721232B74059928239F
:1057A0006B740823A973EB736CE711B0F0BDC046AE
:1057B000800F002038B5051C0C1C081E07D008F00F
:1057C00063FE2B68021C5B68281C211C984738BDAF
:1057D00008B503689B68984708BD70B50378012534
:1057E000041C2B4221D0061C43680C361868A168A3
:1057F000321CFFF7EDFF051E01D1002515E063689F
:105800001A7A022A04D023780122934323700CE0F1
:1058100021781142F7D019691868A368321CC91899
:10582000FFF7D6FF0028EED1E7E7281C70BD83689C
:1058300070B5041C0D1C161C8B4216D0FFF7CDFF53
:10584000002801D1002017E0730703D5002323703F
:10585000A5600AE06368221C1868291C03680C32E2
:105860001B6898470028F1D1ECE703231E402378FA
:10587000201C1E4326700C3070BD8379023999407C
:105880004369C8187047F7B5041C0D1C171C012983
:1058900001D8FF2062E0C2699142FAD8C379202B77
:1058A00011D183698C229200C9098018C91802227B
:1058B000FFF7BDFF0028ECD07F231D40AD002B5823
:1058C0001B011B0944E0102B10D18369090AFF2634
:1058D0008C22920031408018C9180222FFF7A7FFDE
:1058E0000028D6D035406D002B5A31E00C2BD0D19A
:1058F0008BB25B10CB1882699BB200935B129B1832
:1059000001938C239B00C618301C01990222FFF7DB
:105910008EFF0028BDD0009AD305DB0DC25C013399
:10592000009280229200934208D10199301C0131EB
:105930000222FFF77CFF0028ABD00023C35C009A53
:105940001B021343EA0701D51B1101E01B051B0DC8
:10595000E2690020934201D83B60012040B2FEBDC5
:10596000F7B5061C0C1C151C0020012967D9F2692B
:10597000914264D8F379202B11D18C239B00F0182D
:10598000B369C909C9180322FFF751FF002801D1E3
:10599000002054E07F231C40A40025504EE0102B33
:1059A00010D18C22090AFF27B36992003940B01840
:1059B000C9180322FFF73BFF0028E9D03C406400F0
:1059C00025523BE00C2BE3D18FB27F10CF19B26987
:1059D000BFB27B129B1801938C239B00F618301CDE
:1059E00001990322FFF723FF0028D1D00123FF05EF
:1059F0001C40FF0DEBB2002C06D0C25D0F231340FC
:105A0000EAB212011343DBB2C355802301379B0076
:105A10009F4208D10199301C01310322FFF707FF93
:105A20000028B5D000272B09DDB2002C05D1C55DBB
:105A30000F22DBB295431B111D43C5550120FEBD4E
:105A4000F0B5C46885B0051C0E1C019201278C427C
:105A500001D20C1C0027EB6901349C4204D9002FB1
:105A600019D1EC680127F6E7B44214D0281C211C98
:105A700003AAFFF708FF00280DDBECD0039B002BE7
:105A8000E9D1002F00D0EC60281C211C0B4AFFF745
:105A900067FF071E01D100270CE0002E02D1019BF9
:105AA0001C6007E0281C311C221CFFF759FF00284E
:105AB000F5D1F0E7381C05B0F0BDC046FFFFFF0F81
:105AC00073B5051C0C1C281C211C01AAFFF7DBFE6A
:105AD000061E01DA00200EE0281C211C0022FFF720
:105AE0003FFF0028F6D0EB689C4201D8013CEC60F7
:105AF000019C002EE7D176BDF8B501230D1C0121D4
:105B0000C360041C0022431D4942C271A062DA77BF
:105B1000C1628C20800023188C2080005C6022549D
:105B2000996095421CD0042D01D90020A5E0201CCD
:105B30002430111CFFF77BFE0028F6D02D01A9357B
:105B4000FF35401982795106EFD1C57B827B2D024A
:105B50001543027C437C120415431B061D43E4D00D
:105B6000201C2430291C0022FFF761FE0028DCD015
:105B7000027BC37A12021A4380239B009A42D4D13B
:105B8000027C531E012BD0D8C37B817B1B020B43AD
:105B9000CBD02272417B09264B1E63710023A37177
:105BA00021710123994208D0013E002EBDD0A77972
:105BB0005B000137DBB2A771F4E7C37D817D1B0277
:105BC0000B430ED1431DD97F831DDB7F1B020B438B
:105BD000C11DC97F09040B43011C0831C97F090697
:105BE0000B432361C17B867B090231436918A161A4
:105BF0005A43867C477C360252183E431F49730144
:105C00005B185B12D318668122626361017DC27CDE
:105C1000090211430DD1811C421CC97FD27F0902A8
:105C20001143C21CD27F12041143021DD27F1206FF
:105C30001143ED1AA6796D18F5406B1CE361104B0A
:105C40009D4201D80C2316E00E4B9D4201D8102333
:105C500011E0031C2C331A7801331B781B02134309
:105C6000021C2E3212782F301204134302781206CF
:105C7000134323622023E3710120F8BDFF010000DC
:105C8000F40F0000F4FF00000122802352425B0168
:105C9000C250704770B5802464010359051C5A1C1A
:105CA0000DD00E1D301C190B00F076FA231C301C91
:105CB00029592A1C00F0AEFA01235B422B51012026
:105CC00070BDF0B585B0051C0391161C01930A9BAD
:105CD000002B2AD033051B0D0293029A80235B010F
:105CE0009C1A0A9A370B3F03944200D9141CEB58B4
:105CF0009F420CD00399281CFFF7CCFF8023039808
:105D00005B01EF500430391C2A1C00F064FA029A3F
:105D10000199A818221C08F027FA019B0A9A1B195E
:105D2000121B01930A923619D1E7012005B0F0BD8C
:105D3000F0B51E1C80235B01C45885B0039002910E
:105D4000151C621C35D0A54203D20A9AAB18A34297
:105D50002FD980225201A3189D422AD20023641B0E
:105D600001939C4202DA644201941C1C019A802334
:105D70005B019B1A0A9A171B9F4200DD1F1C002C17
:105D800006D00298291C0430321C231C00F023FA90
:105D9000039B019A301999183A1C08F0E5F90A9BFF
:105DA000E4199C420CD202986119043032191B1B71
:105DB00004E002980A9B0430291C321C00F00BFA04
:105DC000012005B0F0BD13B5131C8268041CD07A05
:105DD0004A0241060AD5111C1A1C80239B00201D73
:105DE00000F0F9F9431E9841C0B206E08021890015
:105DF00000916069211CFFF79BFF16BD37B5151C8C
:105E00008268041CD07A5B024A02410608D5111C44
:105E1000201D2A1C00F0DFF9431E9841C0B205E0A6
:105E200000936069211C2B1CFFF782FF3EBD08B563
:105E30008368011CD87A4006C00F02D14869FFF779
:105E400029FF08BD13B5131C8268041CD07A4A02CE
:105E500041060AD5111C1A1C80239B00201D00F04E
:105E6000D9F9431E9841C0B206E080218900009113
:105E70006069211CFFF725FF16BD37B5151C826828
:105E8000041CD07A5B024A02410608D5111C201D71
:105E90002A1C00F0BFF9431E9841C0B205E00093F0
:105EA0006069211C2B1CFFF70CFF3EBD064B10B593
:105EB000041C08C000F054F8044B201C0833236075
:105EC0000023636110BDC0468014010098140100D6
:105ED00070B5041C043000F081F8A368061C002B88
:105EE0000CD0DB7A5A0609D46369002B06D104482A
:105EF00004F050FF051CFFF7C7FE6561301C70BD44
:105F00000410000070B500248C4211DA0C236343A6
:105F1000C31816789D79AE4207D15678DD79AE4226
:105F200003D196781D7AAE4204D00134E4B2EBE797
:105F3000002000E0181C70BD08B58368002B03DB4F
:105F4000017B181C05F086F908BD08B58368002B95
:105F500005DB027B01215140181C05F07BF908BDCF
:105F60000023436001235B428360012301600373CC
:105F7000704737B500686C46036807341D69052112
:105F8000221C0123A84720783EBD37B500686C4627
:105F9000036807341D693521221C0123A847207896
:105FA0003EBD10B54268041CD37A5A0607D4201CA3
:105FB000FFF7DFFF830702D004F0CBFEF7E710BD49
:105FC00008B5006806210368DB68984708BD08B576
:105FD000006804210368DB68984708BDF7B5041C16
:105FE00000680E1C171C002800D1C5E0036801AD35
:105FF0001B68984720682A1C0368196903238C468C
:106000009F21E047002E05D0301C391C2A1CFFF7C9
:1060100079FF60606268002A05D158480C212A1C6B
:10602000FFF770FF60606668002E11D1544C55492F
:10603000201C01F07FFA2978AB78090419436B78AA
:10604000201C1B021943102201F0FFFA301C93E0C0
:10605000F37A58061DD4201CFFF78BFFC107FAD432
:106060006268D37A98060ED5206866210368DB68DB
:106070009847206899210368DB689847F0235B0004
:10608000013BFDD105E0201CFFF77FFF0106FAD49C
:10609000EAE763683C495A7A51433C4A914200D945
:1060A000111CDB7A0A1C580603D5394B994200D9DA
:1060B000384A206803689B689847206803685B68D3
:1060C00098476268002802D0D37A590723D4D37A3C
:1060D0009A0702D520680B23437163681A688023EE
:1060E0005B049A4206D92068B7210368DB689847A9
:1060F000042306E080210023490291425B410322F0
:10610000D31A2168201C0B71FFF761FF201CFFF7D9
:1061100048FF012030E0980603D5201CFFF729FF37
:1061200002E0201CFFF731FF6268957A0540D4D168
:10613000201CFFF745FF6B461D80636868469A7A0E
:10614000DB7A42702068D90606D503686A465D6925
:106150003121013201230DE09A0606D503680121A1
:106160006A465D6952180B1C04E0036801215D69F1
:106170006A460223A847B0E7FEBDC046D01401001E
:10618000F8140020B814010040420F00006CDC023B
:10619000FF1AB700001BB70038B5041C40680D1C7F
:1061A000002817D0C07A4006C00F13D1201CFFF77B
:1061B000C3FE201CFFF7F5FE201CFFF701FF20683F
:1061C0002A03036820219B699847051C201CFFF7C0
:1061D000BCFE281C38BDF8B5161C4268041C0F1CF8
:1061E0001D1C002A01D1002013E0FFF7A5FE201C92
:1061F000FFF7D7FE2068391C0368DA692B1C944628
:10620000321CE047061C201CFFF79FFE002EEAD040
:10621000281CF8BDF7B5041C40680E1C01920093C1
:1062200000283BD0201CFFF787FE6268D37A5A060D
:1062300001D4009F29E0201CFFF7C2FE2068311C1A
:106240000368019A1D6A009BA847201CFFF7BFFE48
:1062500020E0201CFFF7A5FE201CFFF7B1FE8022E6
:10626000F3B25200D51ABD4200D93D1C2068311C42
:1062700003681A6A2B1C9446019AE047002806D04E
:10628000019B7F1B5B1901937619002FE1D1009AC6
:10629000D21B0092201CFFF758FE0098FEBD002084
:1062A000704701614261704710B50121041C007BF9
:1062B00004F090FF207B012104F0CCFFA068FEF7E2
:1062C0008BF810BD094B37B5051C8068994200D981
:1062D000191C6B4600245C711C71019AFDF7E8FEE5
:1062E000287B211C04F0B6FF37BDC04600366E0186
:1062F00010B50121041C007B04F0ACFFA068FDF781
:10630000F3FE10BD38B5041C0D1C2169FFF7DAFF40
:10631000291CA068FDF7FAFE201CFFF7E9FF012009
:1063200038BDF8B5041C0F1C6169151C1E1CFFF755
:10633000C9FFA068391CFDF7E9FEAE19B54206D0C9
:10634000A068FF21FDF7E2FE28700135F6E7201C6A
:10635000FFF7CEFF0120F8BDF8B5041C0F1C216922
:10636000151C1E1CFFF7AEFFA068391CFDF7CEFE02
:10637000AE19B54205D02978A068FDF7C7FE0135F2
:10638000F7E7201CFFF7B4FF0120F8BD054B0173B0
:1063900008330360032343710371034B826043613D
:1063A000036170476015010000093D000379032B6C
:1063B00004D0042B05D1130E0B700131130C0B709C
:1063C0000131130A0B704A70704773B5041C0E1C20
:1063D0002169151CFFF776FF00236A466946009382
:1063E00013711670201C2A1C0131FFF7DFFF227980
:1063F000A06801326946FDF78EFE201CFFF778FF8A
:10640000012076BDF0B5041C87B004AE00250291D2
:106410006169171C0393FFF755FFB58063796946DF
:10642000201C1131029A04953370FFF7BFFF627987
:1064300023790B3A013351424A41D218A068311CEA
:10644000D2B20126FDF767FEA068291C3A1C039B07
:106450000096FDF76FFE201CFFF74AFF301C07B0C7
:10646000F0BDF0B5041C87B00F1C216902920393A4
:10647000FFF728FF694604AE00250223201C3A1CC2
:106480001131049535713370FFF790FF2279A068C0
:10649000311C01320126FDF73EFEA06802992A1C3C
:1064A000039B0096FDF746FE201CFFF721FF301CE2
:1064B00007B0F0BD08B5C07A04F0FCFE431E984159
:1064C000C0B208BD08B5081C111C04F083FE08BD4D
:1064D000044B0A2203600023436002818372C3726B
:1064E0007047C04698150100002310B583720368F9
:1064F000C1721B68041C9847002803D0A37A0322AA
:106500001343A37204F0C6FB606010BD38B5036886
:106510000D1C041C5B689847291C201CFFF7E4FF36
:1065200038BD01817047F8B5837A0426B34383727E
:106530000368041C1B689847A37A01255B08071CA5
:106540002B40984207D004F0A5FBA37A02225340C7
:106550006060A37219E004F09DFB6368C01A238990
:10656000984212D3A37A2B409F420ED004F092FBA4
:10657000A37A60605D402E43A67204F08BFBE36853
:10658000C01A206104F086FBE060A07A4007C00FCB
:10659000F8BD10B5041C04F07DFBE368C01A10BD03
:1065A000807A012318407047807A05231840053807
:1065B00043425841C0B27047827A012300201A42F8
:1065C00001D190081840704737B5036801AC2170BD
:1065D00001221D68211C131CA84720783EBD13B55D
:1065E00001AB5A70026819701468191C022200234A
:1065F000A04713BDF8B51E1C051C0C1C171CFFF78B
:10660000E3FF069A01239340013BB340B740021CCD
:10661000FEB29A43D2B23340281C1A43211CFFF722
:10662000DEFFF8BD08B50021FFF7CEFF08BD07B5B6
:1066300003230A1C009343210023FFF7DBFF07BD60
:1066400007B504230A1C009341210023FFF7D2FF62
:1066500007BD38B5B6227E21041CFFF7C0FF01201C
:1066600004F050FB7F21201CFFF7AEFF012004F057
:1066700049FB201C7E211122FFF7B1FF012004F00D
:1066800041FB201C0321FFF79FFF8506AD0F012D65
:10669000F4D1201C7E211522FFF7A1FF281C04F055
:1066A00031FB201C0321FFF78FFF032580102840BA
:1066B000012801D00120F2E7291C201CFFF7B7FFB9
:1066C000291C201CFFF7BCFF201C5521FF22FFF7CF
:1066D00086FF201C5621F022FFF781FF201C572146
:1066E0000022FFF77CFF38BD07B501230A1C009389
:1066F00077210623FFF77EFF07BD10B5041C012993
:1067000005D04B1C05D03022002903D015E0102203
:1067100000E02022201C6921FFF761FF201C7E2160
:106720000322FFF75CFF201C1B21FFF74DFF03072F
:1067300003D4012004F0E6FAF5E710BD10B5041CFF
:10674000012905D04B1C05D00C22002903D015E0EF
:10675000042200E00822201C6921FFF740FF201CD2
:106760007E210322FFF73BFF201C1B21FFF72CFF9C
:10677000030703D4012004F0C5FAF5E710BD10B5F6
:10678000041C012905D04B1C05D00322002903D08D
:1067900015E00A1C00E00222201C6921FFF71FFF00
:1067A000201C7E210322FFF71AFF201C1B21FFF76C
:1067B0000BFF030703D4012004F0A4FAF5E710BD92
:1067C00008B57121FFF700FF40B208BD08B572217E
:1067D000FFF7FAFE40B208BD08B57321FFF7F4FEDB
:1067E00040B208BD07B501230A1C00937721072397
:1067F000FFF700FF07BD38B57421041CFFF7E4FE66
:106800007721051C201CFFF7DFFE03231840000240
:10681000284383B2820502D5FC221202134318B228
:1068200038BD38B57521041CFFF7CEFE7721051C55
:10683000201CFFF7C9FE0007800F0002284383B227
:10684000820502D5FC221202134318B238BD38B5B6
:106850007621041CFFF7B8FE7721051C201CFFF7EA
:10686000B3FE8006800F0002284383B2820502D562
:10687000FC221202134318B238BDF0B585B001AC4A
:10688000161C1D1C02680C2323700F1C11680122AA
:106890008C46211CE047637822781B0213430A9A36
:1068A0000B991380E378A2781B0213430B80637962
:1068B00022791B0213430C9A1380E379A2791B02FD
:1068C00013433B80637A227A1B0213433380E37ABB
:1068D000A27A1B0213432B8005B0F0BD08B50175E9
:1068E000012903D0022908D1026100E0C260002B17
:1068F00000DB836000F0D9F800E0002008BD000054
:1069000038B5094C051C201C00F030FC201C297BEC
:1069100000F04CFC201C00F000FD002803D00348D0
:10692000034900F019FE38BDB00F0020F814002014
:10693000DC15010010B5041C0748FDF74DFD20696A
:10694000002803DB012104F045FC03E0034804496F
:1069500000F002FE10BDC0461C0D0020F8140020FF
:106960000416010008B51423C356012B04D0022BD2
:1069700004D1FFF7DFFF01E0FFF7C2FF08BD000011
:10698000F7B5061C00690C1C171C0193002802DBDC
:10699000002104F05FFCE719251CBD4205D02978D1
:1069A0000B48FDF7B3FB0135F7E7019BE518AC4257
:1069B00006D007480021FDF7A9FB20700134F6E757
:1069C0003069002802DB012104F044FC0020FEBDF8
:1069D0001C0D0020044A054B08321A600122524265
:1069E0009A60DA601A61704768160100840F00200F
:1069F000F7B51B4C0D1C161C0090017BAE19201C1A
:106A00001F1C00F0D3FB01962E1C019B9E4205D05B
:106A10003178201C00F023FC0136F6E7201C00F042
:106A20007CFC002803D00F480F4900F095FD002F93
:106A300013D0009B201C197B3A1C00F00BFCEE19B4
:106A4000201C00F05BFB002807D0B54205D0201CBD
:106A500000F068FC28700135F2E70020FEBDC0465A
:106A6000B00F0020F81400204716010038B5142498
:106A70000457012C02D0022C03D00CE0FFF7B8FF22
:106A80000AE0002B04D00D78802464422C430C7063
:106A9000FFF776FF00E0002038BD70470020704708
:106AA00010B50468A468A04710BD37B50368041C7E
:106AB0005B689847694607317F230B702368012282
:106AC0001D68201C131CA847201CFFF7C2FD201CBA
:106AD000FFF7A8FDD13843425841C0B23EBD000087
:106AE0000B4A0B1C10B5002193420EDC094A012110
:106AF00093420ADCF422FF320221934205DCDC0FD0
:106B00000021F9229A4261410331FFF790FD10BD47
:106B1000CF070000E7030000F0B58BB005936C468B
:106B20002623161C07AD223409AA6B440F1C0192C0
:106B30000293063A08AB0094291CFFF79EFE002240
:106B4000AB5E6A463B601E23D35E6A4633602023F9
:106B5000D35E059A13600023E25E109B1A606B46B9
:106B600024229A5E119B1A606B4626229A5E129B23
:106B70001A600BB0F0BD0000024A034B08321A60E5
:106B80007047C046801601009C0F0020024B186819
:106B9000002800D000697047A40F002010B5054CF4
:106BA0002468002C04D06469002C01D0A04700E0C8
:106BB000201C10BDA40F002010B5044C2468002C2C
:106BC00003D0A469002C00D0A04710BDA40F002062
:106BD000F0B58FB001900092027E1E2656430D1C28
:106BE0000B32311C223152008A180021934200DA04
:106BF000FDE005AC2222201C07F0D8FA092304206E
:106C00006A46237050756A469575691C6A46012567
:106C100055766A4695766A4653776F462422BA7748
:106C20006F46FD771F37BD70FB7009AFBB706B46B9
:106C3000C9B2273379703D7018700AAB1970022100
:106C4000DD7099700BAB032119700721D9700CAB63
:106C50001A705D707618DD700DAB1E7036125E70A6
:106C60000098211C222207F07FFA2227019805AC08
:106C7000067E0021201CB54254D81E2207F096FA49
:106C80006A1E9200D2B2531CDBB20293931CDBB299
:106C9000039306216B4624202170587502239C46DD
:106CA00066466B469E7568460123029EC37506A81C
:106CB00006706846817669462420C876664607A92C
:106CC0000E70039869464E7769468877242608A98E
:106CD0004E7009206E4608702236032131707370A1
:106CE000521809AE3270039E6A46253256701071F2
:106CF000029E242013709370507191710BAA61460B
:106D00001170D670A900009E517093700CAA137078
:106D1000F019211C1E221E37013507F025FABFB2DB
:106D2000EDB2A3E70B2207F041FA072323700522F7
:106D30006B465A7502226B46DA75402206AB1A7012
:106D4000321D6B46DA76252207AB1A7001226B469C
:106D50005A776B469E77009E0B22F019211C0B3749
:106D600007F002FABAB2151C01270198BB1A5B1989
:106D7000067EDBB2B34206D89B00009E033B7355F0
:106D80000135ADB2F0E700210B22201C07F00EFA0E
:106D90000723237005226B465A7580226B469A752D
:106DA00002226B46DA75402206AB1A70321D6B4622
:106DB000DA76252207AB1A706B465F776B469E77B3
:106DC000009E211C70190B350B22ADB207F0CCF9D7
:106DD000291C019E4B1B0133327EDBB29A4206D343
:106DE0009B00009E013B7354013189B2F1E7081CFE
:106DF0000FB0F0BD08B4024B9C46103808BC604789
:106E0000D16B0000012040427047704708B5002058
:106E1000011C01F0B3FC08BD07B56A46073200202B
:106E200011700123011C01F017FD0EBD13B56C4656
:106E300007340020011C221C012301F0BBFC0028A8
:106E400001D0207801E00120404216BD00234360BC
:106E50004361FA22054B920082601A1C30330832DB
:106E600003610123026003767047C0469816010053
:106E700008B5011C1031024800F0E6FF08BDC0460D
:106E80005415002008B5002001F086FD08BD08B5A6
:106E9000002001F07FFC08BD034B1868002801D0DA
:106EA000503000787047C046A80F0020F7B5019316
:106EB0001E4B0F1C1B680092002B35D02422111C86
:106EC000414359188E69002E00D1194E42439A1839
:106ED000D569002D00D1174D242250431B181C6A80
:106EE000002C00D1144C301C07F0CEFA08220728E1
:106EF00000D8021C311C381C07F036F9281C07F09A
:106F0000C3FA10220F2800D8021C291C009807F091
:106F10002BF9201C07F0B8FA0422032800D8021C21
:106F20000198211C07F020F9F7BDC046A80F0020EA
:106F3000D0160100D9160100E616010070B50B4EFF
:106F4000041C3368002B0FD0242545435D196B6961
:106F5000002B02D098472835A87024225443336868
:106F60001C192834A07800E0181C70BDA80F002060
:106F7000064B10B51B68002B06D02424604318185C
:106F8000436A0B60038D138010BDC046A80F00201C
:106F900010B51C1C0B781E2B05D0052120220023C8
:106FA00001F09AFE00E00024201C10BD094A10B533
:106FB0001268002A0AD02424604312189468002C16
:106FC00004D0081C029A191CA04701E0012040428D
:106FD00010BDC046A80F0020094A10B51268002A4B
:106FE0000AD0242460431218D468002C04D0081C52
:106FF000029A191CA04701E00120404210BDC04682
:10700000A80F002008B5064B1B68002B06D02422D1
:1070100050431B181B69002B00D0984708BDC04681
:10702000A80F002000487047EA160100F7B5204E6F
:10703000051C33680C1C002B34D04A78022A0AD075
:10704000222A1ED00020012A31D1DA69002A2BD051
:107050001378281C12E00B794979002009021943A2
:10706000072924D1134E6F460637311C0831381CCE
:1070700007F07AF83B88281C211C321C02F098FF8C
:1070800015E0E278897812020A43511E8A411A7685
:10709000211C02F079FF3268136A002B06D0107EA3
:1070A000984703E0181C02E0101C00E00120FEBD20
:1070B000AC0F00201400002001207047F8B5051C1B
:1070C0000F1C161C0024B44208D02B68395D1B68C5
:1070D000281C9847002801D00134F4E7201CF8BD93
:1070E0007047031CFC33196ADA69914203D01B6AAA
:1070F000C018007E01E0012040427047031CFC33B1
:10710000D8691B6AC01A01D50130FF3070470000F2
:10711000F7B50193FA239B008360134B802600256B
:1071200076000833041C0F1C4560291C0092036084
:10713000321C183007F03AF8231C9022FC3352001E
:10714000DD61A0181D62321C291C07F02FF8872270
:107150009200A3185D60019A9D60009B2761A57550
:10716000201C23756275FEBD2817010070B50D49FE
:10717000041C006900F0E8FC206900F056FB1826AA
:10718000207D331C4343084D0821EB18595604F069
:10719000A9F8607D08214643AD19695604F0A2F8AC
:1071A00070BDC046A0860100501701008A238722C7
:1071B0009B009200C154831800225A609A600123F8
:1071C00083757047031CFC335A6810B501329C6804
:1071D000D2B2A24202D05C6801555A6010BDF7B528
:1071E00001930023041C151C181C9A4231D0221C48
:1071F000FC32D36120691362012200F053FB0028A6
:1072000025D0206900F0CFFB271C1837011C381C43
:10721000FFF7D8FF01262069AE420ED000F022FB16
:107220000221206900F028FB206900F0BCFB011C52
:10723000381CFFF7C7FF0136EDE700F00AFB019BA2
:10724000002B05D02069032100F016FB00E0051C8F
:10725000E8B2FEBD08B50123FFF7C1FF08BD10B5B8
:10726000827D00239A420DD08724A400021954681D
:1072700092680134E4B2944204D02130FF30FFF729
:10728000A1FF0123181C10BD031CFC3399685A6828
:10729000914206D09A68805C9A680132D2B29A60B4
:1072A00001E001204042704770B500228A238275B8
:1072B0009B00041C0E1CC15C006900F0F3FA00285E
:1072C00005D12069032100F0D7FA022523E090239D
:1072D0005B00E01887239B00E21851689368CB1A83
:1072E00001D50133FF33002B0ED02569FFF7CCFF0A
:1072F000C1B2281C00F017FB0028E8D12069032147
:1073000000F0BAFA032506E01D1C002E03D0206908
:10731000032100F0B1FA281C70BD08B50121FFF768
:10732000C3FF08BD08B51830FFF7AEFF08BD38B57C
:10733000041C006900F015FB002800D184E02069DE
:1073400000F01DFB00280ED1206900F022FB002870
:107350001FD0206900F018FB00281AD0206900F027
:107360001DFB002815D1206900F07CFA206903215B
:1073700000F082FA8C239B00E558002D04D023688E
:10738000201C1B699847A847FC340023E361236253
:107390005AE0206900F0FDFA031C2069002B19D087
:1073A00000F060FA2069032100F066FA206900F01D
:1073B000F5FA002848D087229200A31800225A60CC
:1073C0009A600123A3758B239B00E35893423BD023
:1073D000984739E000F0CEFA002835D0206900F057
:1073E000DDFA002816D087239B00E21851689368C5
:1073F000CB1A01D50133FF33FF21002B05D090229A
:107400005200A018FFF740FFC1B2206900F09CFABB
:10741000A07519E0231CFC33DA691B6A0132D2B271
:1074200020699A4202D100F014FA09E000F0BBFA98
:10743000011C201C1830FFF7C5FE206900F012FA6D
:107440002069032100F018FA38BD000008B5024891
:10745000FFF76DFF08BDC046B00F002008B5034818
:1074600003491A221B23FFF753FE08BDB00F00206B
:10747000E014002008B5024803F02FFA08BDC0460A
:10748000E411002013B5114C1149201C00F0E7F85D
:107490001049114800F0E3F81049114800F0DFF8F6
:1074A0001049114800F0DBF81049114800F0D7F8F6
:1074B0001049114800F0D3F80323009301230193EE
:1074C000211C00220D4803F01FF913BDE414002015
:1074D00000080042000C0042E814002000100042A6
:1074E000EC14002000140042E014002000180042B8
:1074F000F0140020001C0042F4140020E4110020CD
:10750000F7B58A18061C0D1C01920C1C019B671B09
:107510009C4207D0336821781B68301C984701349F
:107520000028F3D1381CFEBD08B50368C9B21B683A
:10753000984708BD08B5FEF73DF908BD08B50368D2
:107540001B68984708BD000008B50249FEF732F9EC
:1075500008BDC046701B010038B5041CFEF72AF9AF
:10756000051C201CFFF7F0FF281838BDF0B58DB0C2
:10757000161C0BAB002201900C1C1A70012E00D8B7
:107580000A266D462B35201C311C03F0E7FF201C1A
:10759000CFB2311C03F09EFF291C041C092F01D817
:1075A000303700E03737FFB22F70013D002CEAD1B1
:1075B0000198FEF7FFF80DB0F0BDF8B5041C0D1CE6
:1075C000161E04D10368C9B21B68984712E00A2A44
:1075D0000DD100290ADA2D21FFF7B0FF6942071CFF
:1075E000321C201CFFF7C2FFC01903E000E0D2B23A
:1075F000FFF7BCFFF8BD08B5FFF7DFFF08BD38B5E2
:10760000041CFFF7DAFF051C201CFFF79DFF28185C
:1076100038BD08B5002A02D1FFF786FF02E0D2B2DA
:10762000FFF7A4FF08BD08B5FFF7F3FF08BD08B5D5
:10763000FFF7EFFF08BD38B5041CFFF7EAFF051C94
:10764000201CFFF781FF281838BD38B5041CFFF750
:10765000E0FF051C201CFFF777FF401938BD0160D3
:107660007047F7B508AC267804689D1E27686C1E25
:10767000A541ECB2920705683A4327063A432A60CF
:107680000268072529405068B501002C00D05C0332
:10769000294301430C435460F7BD30B50368C0254E
:1076A0001C68AD0312052A402243C024A402090429
:1076B00021401143196003685A6814435C6030BD6F
:1076C000036801211A680A431A60026811680123DD
:1076D0001942FBD1D1691942F8D1704703680221E0
:1076E0001A680A431A600268D3699907FCD4704784
:1076F00003681A7ED10702D41A7E9107FCD5704721
:10770000036800225A8370470368187E4007C00F41
:1077100070470368187EC009704703688022197E8D
:1077200052420A431A7670470368588B8007C00F8D
:107730007047036802215A8B0A435A8370470368D3
:10774000187E0123184070470368188DC0B2704737
:1077500003681A7E01200242FBD019857047036836
:1077600001229A757047036801221A7570470368F1
:1077700001211A680A431A6002681168012319423C
:10778000FBD1D1691942F8D17047036802211A6808
:107790000A431A600268D3699907FCD470470368EA
:1077A000DA699107FCD41A6802218A431A6070478B
:1077B00003689A6A520A52021143996203681A7E58
:1077C0005107FCD5986AC0B27047000008B549005F
:1077D000044803F07FFE80B2002801D0013880B257
:1077E000C0B208BD006CDC0270B50B1C0468012639
:1077F0009D07ED0F334021686D071B072B430B439B
:107800002360111C0468FFF7E1FF207370BD03685B
:1078100001211A680A431A6002681168012319429B
:10782000FBD1D1691942F8D17047036802211A6867
:107830000A431A600368DA699107FCD45A8B302135
:107840008A4310210A435A830268D3695907FCD43A
:1078500070470368802219685968D2020A435A6047
:10786000704700000368034A196859680A405A6063
:107870007047C046FFFFFBFF30B5036803241D6857
:107880000C40074A596824040A40ED0622436D0F54
:107890005A60052D03D10268D3695907FCD430BD65
:1078A000FFFFFCFF70B50368051C588B032400091B
:1078B0002040022813D0588B00092040A04230D02D
:1078C000588B860705D5588B000904400020012CF1
:1078D00028D15C8B0020A406A40F844222D049004A
:1078E0001143C8B2596AC90AC902014359622B68D7
:1078F000002A03D11A7ED107FCD50DE0187E0122A3
:107900004008104008D1197E1142F7D05968C022B2
:1079100092020A435A6005E05B8B01209B08984362
:1079200000E0002070BD0368283319700268107EE3
:107930000123184003D1518B1942F8D003E0528B38
:10794000181C920890437047036828331970036825
:1079500000201A7E510703D55B8B01209B089843BA
:10796000704703681868C006400F04384342584106
:10797000C0B270470368187E4007C00F70470368A5
:10798000187E0123184070470368588BC006C00F4B
:1079900070470368187E8007C00F70470368588BD4
:1079A0000007C00F704703681A68D206520F052AF5
:1079B00002D11A7E9107FCD528331878C0B27047DF
:1079C00010B5026800230749DC006158D8B28A422A
:1079D00001D1C0B203E00133062BF4D1FF2040B245
:1079E00010BDC046801B0100F8B5FFF7E9FF002875
:1079F00043DB224BC0001818437905795CB2DBB237
:107A0000002C26DB1F21194001228A40111CC020B6
:107A10001B4A4000A40811500327A400C020A4184A
:107A200080003B40BB402658FF279F40BE43C027F5
:107A30009F403B1C3343235011603F231D40802354
:107A4000DB011D430F4B5D805A7852B2002AFBDBED
:107A500013E00F221A40083A0B48920892001218BD
:107A6000032003408340D169FF2098408143C02018
:107A70009840031C0B43D361DFE7F8BD801B010076
:107A800000E100E0000C004000ED00E0F8B5041C4F
:107A9000151C0E1C1F1CFFF7A7FF201CFFF710FE74
:107AA000B1001C220A4069072368090C0A431A60C6
:107AB000226884239375012E1AD10821012D00D14B
:107AC00010210C4B79431868C00003F003FD2368B4
:107AD00007219A890140D2044903D20C0A439A81B2
